{
  "transactions": [
    {
      "hash": "0x97d07815f26089466c30f79b2caaf960b6d11e056f22cbbbe7a899e8dcca94a1",
      "type": "CREATE",
      "contractName": "Pool",
      "contractAddress": "0x166c5d11457e5416b5d092e34a718536b6ca7744",
      "tx": {
        "type": "0x02",
        "from": "0xb83e23e6a781e57a540281f8e163cb95e9e9f6e3",
        "gas": "0x95fe8",
        "value": "0x0",
        "data": "0x60a060405234801561001057600080fd5b506040516107e93803806107e983398101604081905261002f91610090565b61003833610040565b6080526100a9565b600080546001600160a01b038381166001600160a01b0319831681178455604051919092169283917f8be0079c531659141344cd1fd0a4f28419497f9722a3daafe3b4186f6b6457e09190a35050565b6000602082840312156100a257600080fd5b5051919050565b60805161071e6100cb600039600081816102ed01526103a1015261071e6000f3fe6080604052600436106100705760003560e01c80638da5cb5b1161004e5780638da5cb5b146100cc57806395bbe4e7146100f8578063b214faa514610118578063f2fde38b1461012b57600080fd5b806345af8858146100755780635436d4e814610097578063715018a6146100b7575b600080fd5b34801561008157600080fd5b5061009561009036600461059d565b61014b565b005b3480156100a357600080fd5b506100956100b23660046105e3565b610198565b3480156100c357600080fd5b50610095610280565b3480156100d857600080fd5b50600054604080516001600160a01b039092168252519081900360200190f35b34801561010457600080fd5b5061009561011336600461059d565b610294565b610095610126366004610694565b61039f565b34801561013757600080fd5b5061009561014636600461059d565b61047a565b6000546001600160a01b031633148061016d57506002546001600160a01b0316155b61017657600080fd5b600280546001600160a01b0319166001600160a01b0392909216919091179055565b6002546001600160a01b031633146101e75760405162461bcd60e51b815260206004820152600d60248201526c2737903832b936b4b9b9b4b7b760991b60448201526064015b60405180910390fd5b6000816040516020016101fa91906106ad565b60408051601f1981840301815291815281516020928301206000818152600190935291205490915060ff166102675760405162461bcd60e51b815260206004820152601360248201527215dbdc99081a185cda081b9bdd08199bdd5b99606a1b60448201526064016101de565b6000908152600160205260409020805460ff1916905550565b6102886104f3565b610292600061054d565b565b6002546001600160a01b031633146102de5760405162461bcd60e51b815260206004820152600d60248201526c2737903832b936b4b9b9b4b7b760991b60448201526064016101de565b600080826001600160a01b03167f000000000000000000000000000000000000000000000000000000000000000060405160006040518083038185875af1925050503d806000811461034c576040519150601f19603f3d011682016040523d82523d6000602084013e610351565b606091505b50915091508161039a5760405162461bcd60e51b81526020600482015260146024820152732330b4b632b2103a379039b2b7321022ba3432b960611b60448201526064016101de565b505050565b7f000000000000000000000000000000000000000000000000000000000000000034146104055760405162461bcd60e51b815260206004820152601460248201527315dc9bdb99c819195c1bdcda5d08185b5bdd5b9d60621b60448201526064016101de565b60008181526001602052604090205460ff161561045c5760405162461bcd60e51b815260206004820152601560248201527412185cda08185b1c9958591e481a5b98db1d591959605a1b60448201526064016101de565b6000908152600160208190526040909120805460ff19169091179055565b6104826104f3565b6001600160a01b0381166104e75760405162461bcd60e51b815260206004820152602660248201527f4f776e61626c653a206e6577206f776e657220697320746865207a65726f206160448201526564647265737360d01b60648201526084016101de565b6104f08161054d565b50565b6000546001600160a01b031633146102925760405162461bcd60e51b815260206004820181905260248201527f4f776e61626c653a2063616c6c6572206973206e6f7420746865206f776e657260448201526064016101de565b600080546001600160a01b038381166001600160a01b0319831681178455604051919092169283917f8be0079c531659141344cd1fd0a4f28419497f9722a3daafe3b4186f6b6457e09190a35050565b6000602082840312156105af57600080fd5b81356001600160a01b03811681146105c657600080fd5b9392505050565b634e487b7160e01b600052604160045260246000fd5b6000602082840312156105f557600080fd5b813567ffffffffffffffff8082111561060d57600080fd5b818401915084601f83011261062157600080fd5b813581811115610633576106336105cd565b604051601f8201601f19908116603f0116810190838211818310171561065b5761065b6105cd565b8160405282815287602084870101111561067457600080fd5b826020860160208301376000928101602001929092525095945050505050565b6000602082840312156106a657600080fd5b5035919050565b6000825160005b818110156106ce57602081860181015185830152016106b4565b818111156106dd576000828501525b50919091019291505056fea26469706673582212205f4a3c1d97f29142d92d7d482ddee030803475bf3346d62ca62b1db244dd8d6a64736f6c634300080f0033000000000000000000000000000000000000000000000000002386f26fc10000",
        "nonce": "0x6",
        "accessList": []
      }
    },
    {
      "hash": "0xa2d581472cf0487976954ceb00268be9cf881ad3d240a2b5bd5e7fb84ad4d6e3",
      "type": "CREATE",
      "contractName": "Lens",
      "contractAddress": "0xcf3269d26ca2a6d10be6c6faa9a5e507fdc2894f",
      "tx": {
        "type": "0x02",
        "from": "0xb83e23e6a781e57a540281f8e163cb95e9e9f6e3",
        "gas": "0xc224b",
        "value": "0x0",
        "data": "0x608060405234801561001057600080fd5b506040516107b63803806107b683398101604081905261002f91610204565b600080546001600160a01b0319166001600160a01b0383161781556040805160c08101825230815281518083018352600a8152693a32b9ba3337b7b130b960b11b602080830191909152808301919091528251808201845284815282840152606082018490528251808201845284815260808301528251908101835292835260a08101929092525162fcbf2960e31b815273420f0257d43145bb002e69b14ff2eb9630fc4736919082906307e5f948906100ed908490600401610281565b600060405180830381600087803b15801561010757600080fd5b505af115801561011b573d6000803e3d6000fd5b50506000546040516308b5f10b60e31b81523060048201526001600160a01b0390911692506345af88589150602401600060405180830381600087803b15801561016457600080fd5b505af1158015610178573d6000803e3d6000fd5b5050604051632f745c5960e01b8152306004820152600060248201527360ae865ee4c725cd04353b5aab364553f56cef829250632f745c5991506044016020604051808303816000875af11580156101d4573d6000803e3d6000fd5b505050506040513d601f19601f820116820180604052508101906101f8919061031f565b60015550610338915050565b60006020828403121561021657600080fd5b81516001600160a01b038116811461022d57600080fd5b9392505050565b6000815180845260005b8181101561025a5760208185018101518683018201520161023e565b8181111561026c576000602083870101525b50601f01601f19169290920160200192915050565b60208152600060018060a01b03808451166020840152602084015160c060408501526102b060e0850182610234565b90506040850151601f19808684030160608701526102ce8383610234565b925083606088015116608087015260808701519350808684030160a08701526102f78385610234565b935060a08701519250808685030160c087015250506103168282610234565b95945050505050565b60006020828403121561033157600080fd5b5051919050565b61046f806103476000396000f3fe608060405234801561001057600080fd5b506004361061002b5760003560e01c80630dea4c5114610030575b600080fd5b61004361003e366004610237565b610045565b005b600054604051630a86da9d60e31b81526001600160a01b0390911690635436d4e890610075908490600401610335565b600060405180830381600087803b15801561008f57600080fd5b505af11580156100a3573d6000803e3d6000fd5b5050505060006040518060c0016040528060015481526020016040518060600160405280603f81526020016103fb603f91398152602001730be6bd7092ee83d44a6ec1d949626fee48cab30c6001600160a01b031681526020016000604051602001610113911515815260200190565b60408051601f198184030181529181529082526000602083810182905282519081018352908152918101919091525163963ff14160e01b81529091507360ae865ee4c725cd04353b5aab364553f56cef8290819063963ff1419061017b90859060040161034f565b6020604051808303816000875af115801561019a573d6000803e3d6000fd5b505050506040513d601f19601f820116820180604052508101906101be91906103e1565b506000546040516395bbe4e760e01b81523360048201526001600160a01b03909116906395bbe4e790602401600060405180830381600087803b15801561020457600080fd5b505af1158015610218573d6000803e3d6000fd5b50505050505050565b634e487b7160e01b600052604160045260246000fd5b60006020828403121561024957600080fd5b813567ffffffffffffffff8082111561026157600080fd5b818401915084601f83011261027557600080fd5b81358181111561028757610287610221565b604051601f8201601f19908116603f011681019083821181831017156102af576102af610221565b816040528281528760208487010111156102c857600080fd5b826020860160208301376000928101602001929092525095945050505050565b6000815180845260005b8181101561030e576020818501810151868301820152016102f2565b81811115610320576000602083870101525b50601f01601f19169290920160200192915050565b60208152600061034860208301846102e8565b9392505050565b60208152815160208201526000602083015160c0604084015261037560e08401826102e8565b60408501516001600160a01b03908116606086810191909152860151858303601f199081016080880152929350916103ad84846102e8565b93508160808801511660a087015260a08701519250808685030160c087015250506103d882826102e8565b95945050505050565b6000602082840312156103f357600080fd5b505191905056fe68747470733a2f2f617277656176652e6e65742f796a4a4230366a446a6e755a46464d6b32526337376b535a4551453153612d31456937386130384b514573a2646970667358221220f2dac20ad3fc22ab5ac7d5fae5d8defb28aca1b77bd34e38aee4f4711adec45064736f6c634300080f0033000000000000000000000000166c5d11457e5416b5d092e34a718536b6ca7744",
        "nonce": "0x7",
        "accessList": []
      }
    },
    {
      "hash": "0x64aade014c2fbe37215b71f0bc4cae11159ac51aa9fcf65f6467775b839cef27",
      "type": "CALL",
      "contractName": "Pool",
      "contractAddress": "0x166c5d11457e5416b5d092e34a718536b6ca7744",
      "function": "deposit(bytes32)",
      "arguments": [
        "1c8aff950685c2ed4bc3174f3472287b56d9517b9c948127319a09a7a36deac8"
      ],
      "tx": {
        "type": "0x02",
        "from": "0xb83e23e6a781e57a540281f8e163cb95e9e9f6e3",
        "to": "0x166c5d11457e5416b5d092e34a718536b6ca7744",
        "gas": "0xe09e",
        "value": "0x2386f26fc10000",
        "data": "0xb214faa51c8aff950685c2ed4bc3174f3472287b56d9517b9c948127319a09a7a36deac8",
        "nonce": "0x8",
        "accessList": []
      }
    },
    {
      "hash": "0x4e6afddc98bc8625d234954f5be2c7e054accfa7492033dc164a032842ff64ba",
      "type": "CALL",
      "contractName": "Lens",
      "contractAddress": "0xcf3269d26ca2a6d10be6c6faa9a5e507fdc2894f",
      "function": "verifyAndPost(string)",
      "arguments": [
        "hello"
      ],
      "tx": {
        "type": "0x02",
        "from": "0xb83e23e6a781e57a540281f8e163cb95e9e9f6e3",
        "to": "0xcf3269d26ca2a6d10be6c6faa9a5e507fdc2894f",
        "gas": "0x3c1ae",
        "value": "0x0",
        "data": "0x0dea4c510000000000000000000000000000000000000000000000000000000000000020000000000000000000000000000000000000000000000000000000000000000568656c6c6f000000000000000000000000000000000000000000000000000000",
        "nonce": "0x9",
        "accessList": []
      }
    }
  ],
  "receipts": [
    {
      "transactionHash": "0x97d07815f26089466c30f79b2caaf960b6d11e056f22cbbbe7a899e8dcca94a1",
      "transactionIndex": "0x0",
      "blockHash": "0x19302fd0f2ef35a8ccb8b90d972d11b81f1b52f379b44c63b9fa7e64210127ca",
      "blockNumber": "0x1ad90d3",
      "from": "0xb83e23e6a781e57a540281f8e163cb95e9e9f6e3",
      "to": null,
      "cumulativeGasUsed": "0x73615",
      "gasUsed": "0x73615",
      "contractAddress": "0x166c5d11457e5416b5d092e34a718536b6ca7744",
      "logs": [
        {
          "address": "0x166c5d11457e5416b5d092e34a718536b6ca7744",
          "topics": [
            "0x8be0079c531659141344cd1fd0a4f28419497f9722a3daafe3b4186f6b6457e0",
            "0x0000000000000000000000000000000000000000000000000000000000000000",
            "0x000000000000000000000000b83e23e6a781e57a540281f8e163cb95e9e9f6e3"
          ],
          "data": "0x",
          "blockHash": "0x19302fd0f2ef35a8ccb8b90d972d11b81f1b52f379b44c63b9fa7e64210127ca",
          "blockNumber": "0x1ad90d3",
          "transactionHash": "0x97d07815f26089466c30f79b2caaf960b6d11e056f22cbbbe7a899e8dcca94a1",
          "transactionIndex": "0x0",
          "logIndex": "0x0",
          "removed": false
        },
        {
          "address": "0x0000000000000000000000000000000000001010",
          "topics": [
            "0x4dfe1bbbcf077ddc3e01291eea2d5c70c2b422b415d95645b9adcfd678cb1d63",
            "0x0000000000000000000000000000000000000000000000000000000000001010",
            "0x000000000000000000000000b83e23e6a781e57a540281f8e163cb95e9e9f6e3",
            "0x0000000000000000000000003a22c8bc68e98b0faf40f349dd2b2890fae01484"
          ],
          "data": "0x0000000000000000000000000000000000000000000000000005097930ebb600000000000000000000000000000000000000000000000000057392e0a02f20f80000000000000000000000000000000000000000000000641419e84386e3d0d4000000000000000000000000000000000000000000000000056e89676f436af8000000000000000000000000000000000000000000000064141ef1bcb7cf86d4",
          "blockHash": "0x19302fd0f2ef35a8ccb8b90d972d11b81f1b52f379b44c63b9fa7e64210127ca",
          "blockNumber": "0x1ad90d3",
          "transactionHash": "0x97d07815f26089466c30f79b2caaf960b6d11e056f22cbbbe7a899e8dcca94a1",
          "transactionIndex": "0x0",
          "logIndex": "0x1",
          "removed": false
        }
      ],
      "status": "0x1",
      "logsBloom": "0x00000000000000000000000000000000000000000000000000800000000000000000000000000000000000000000000000008000000000000000000000008000000000000000000000000000000000800001000000000000000100000000000000000000020000000000000002000800000000000000080080000000000000400000000000000000000000000000000000000000000000000000000000000000200000000000000000080000000000000000000000000000000000000000004000000000000000000001000000600100000000000000000000100000000020000000000000000010000000000000000000000000000000000000080000100000",
      "type": "0x2",
      "effectiveGasPrice": "0xb2d05e0f"
    },
    {
      "transactionHash": "0xa2d581472cf0487976954ceb00268be9cf881ad3d240a2b5bd5e7fb84ad4d6e3",
      "transactionIndex": "0x1",
      "blockHash": "0x19302fd0f2ef35a8ccb8b90d972d11b81f1b52f379b44c63b9fa7e64210127ca",
      "blockNumber": "0x1ad90d3",
      "from": "0xb83e23e6a781e57a540281f8e163cb95e9e9f6e3",
      "to": null,
      "cumulativeGasUsed": "0x108b8a",
      "gasUsed": "0x95575",
      "contractAddress": "0xcf3269d26ca2a6d10be6c6faa9a5e507fdc2894f",
      "logs": [
        {
          "address": "0x60ae865ee4c725cd04353b5aab364553f56cef82",
          "topics": [
            "0xddf252ad1be2c89b69c2b068fc378daa952ba7f163c4a11628f55a4df523b3ef",
            "0x0000000000000000000000000000000000000000000000000000000000000000",
            "0x000000000000000000000000cf3269d26ca2a6d10be6c6faa9a5e507fdc2894f",
            "0x00000000000000000000000000000000000000000000000000000000000046ea"
          ],
          "data": "0x",
          "blockHash": "0x19302fd0f2ef35a8ccb8b90d972d11b81f1b52f379b44c63b9fa7e64210127ca",
          "blockNumber": "0x1ad90d3",
          "transactionHash": "0xa2d581472cf0487976954ceb00268be9cf881ad3d240a2b5bd5e7fb84ad4d6e3",
          "transactionIndex": "0x1",
          "logIndex": "0x2",
          "removed": false
        },
        {
          "address": "0x60ae865ee4c725cd04353b5aab364553f56cef82",
          "topics": [
            "0x4e14f57cff7910416f2ef43cf05019b5a97a313de71fec9344be11b9b88fed12",
            "0x00000000000000000000000000000000000000000000000000000000000046ea",
            "0x000000000000000000000000420f0257d43145bb002e69b14ff2eb9630fc4736",
            "0x000000000000000000000000cf3269d26ca2a6d10be6c6faa9a5e507fdc2894f"
          ],
          "data": "0x00000000000000000000000000000000000000000000000000000000000000c00000000000000000000000000000000000000000000000000000000000000100000000000000000000000000000000000000000000000000000000000000000000000000000000000000000000000000000000000000000000000000000001200000000000000000000000000000000000000000000000000000000000000140000000000000000000000000000000000000000000000000000000006325e00f000000000000000000000000000000000000000000000000000000000000000f74657374666f6f6261722e746573740000000000000000000000000000000000000000000000000000000000000000000000000000000000000000000000000000000000000000000000000000000000000000000000000000000000000000000000000000000000000000000000000000000000000000000000000000000000",
          "blockHash": "0x19302fd0f2ef35a8ccb8b90d972d11b81f1b52f379b44c63b9fa7e64210127ca",
          "blockNumber": "0x1ad90d3",
          "transactionHash": "0xa2d581472cf0487976954ceb00268be9cf881ad3d240a2b5bd5e7fb84ad4d6e3",
          "transactionIndex": "0x1",
          "logIndex": "0x3",
          "removed": false
        },
        {
          "address": "0x0000000000000000000000000000000000001010",
          "topics": [
            "0x4dfe1bbbcf077ddc3e01291eea2d5c70c2b422b415d95645b9adcfd678cb1d63",
            "0x0000000000000000000000000000000000000000000000000000000000001010",
            "0x000000000000000000000000b83e23e6a781e57a540281f8e163cb95e9e9f6e3",
            "0x0000000000000000000000003a22c8bc68e98b0faf40f349dd2b2890fae01484"
          ],
          "data": "0x000000000000000000000000000000000000000000000000000685043670f600000000000000000000000000000000000000000000000000056e89676ed73fbd000000000000000000000000000000000000000000000064141ef1bcb7cf86d400000000000000000000000000000000000000000000000005680463386649bd000000000000000000000000000000000000000000000064142576c0ee407cd4",
          "blockHash": "0x19302fd0f2ef35a8ccb8b90d972d11b81f1b52f379b44c63b9fa7e64210127ca",
          "blockNumber": "0x1ad90d3",
          "transactionHash": "0xa2d581472cf0487976954ceb00268be9cf881ad3d240a2b5bd5e7fb84ad4d6e3",
          "transactionIndex": "0x1",
          "logIndex": "0x4",
          "removed": false
        }
      ],
      "status": "0x1",
      "logsBloom": "0x00000000000000000000000000000000000000000000000000000400000000000000000000000000000000000000000000008008000000000000000000008000000200000000000000000008000000800000008000000000400100000000000004000000020000000000000002000800000000000000000080000010000000000200000000000001000000000000000000000010002000000000000000000000200000000000000000080000000000000800000000000000000000000000004000000002000000000001008000600120000000000000000000100000000020000000000000000000000000000800000000000000000000000000000000100000",
      "type": "0x2",
      "effectiveGasPrice": "0xb2d05e0f"
    },
    {
      "transactionHash": "0x64aade014c2fbe37215b71f0bc4cae11159ac51aa9fcf65f6467775b839cef27",
      "transactionIndex": "0x2",
      "blockHash": "0x19302fd0f2ef35a8ccb8b90d972d11b81f1b52f379b44c63b9fa7e64210127ca",
      "blockNumber": "0x1ad90d3",
      "from": "0xb83e23e6a781e57a540281f8e163cb95e9e9f6e3",
      "to": "0x166c5d11457e5416b5d092e34a718536b6ca7744",
      "cumulativeGasUsed": "0x113853",
      "gasUsed": "0xacc9",
      "contractAddress": null,
      "logs": [
        {
          "address": "0x0000000000000000000000000000000000001010",
          "topics": [
            "0xe6497e3ee548a3372136af2fcb0696db31fc6cf20260707645068bd3fe97f3c4",
            "0x0000000000000000000000000000000000000000000000000000000000001010",
            "0x000000000000000000000000b83e23e6a781e57a540281f8e163cb95e9e9f6e3",
            "0x000000000000000000000000166c5d11457e5416b5d092e34a718536b6ca7744"
          ],
          "data": "0x000000000000000000000000000000000000000000000000002386f26fc100000000000000000000000000000000000000000000000000000567677e88f31aa000000000000000000000000000000000000000000000000000000000000000000000000000000000000000000000000000000000000000000543e08c19321aa0000000000000000000000000000000000000000000000000002386f26fc10000",
          "blockHash": "0x19302fd0f2ef35a8ccb8b90d972d11b81f1b52f379b44c63b9fa7e64210127ca",
          "blockNumber": "0x1ad90d3",
          "transactionHash": "0x64aade014c2fbe37215b71f0bc4cae11159ac51aa9fcf65f6467775b839cef27",
          "transactionIndex": "0x2",
          "logIndex": "0x5",
          "removed": false
        },
        {
          "address": "0x0000000000000000000000000000000000001010",
          "topics": [
            "0x4dfe1bbbcf077ddc3e01291eea2d5c70c2b422b415d95645b9adcfd678cb1d63",
            "0x0000000000000000000000000000000000000000000000000000000000001010",
            "0x000000000000000000000000b83e23e6a781e57a540281f8e163cb95e9e9f6e3",
            "0x0000000000000000000000003a22c8bc68e98b0faf40f349dd2b2890fae01484"
          ],
          "data": "0x000000000000000000000000000000000000000000000000000078b064c1ce000000000000000000000000000000000000000000000000000568046337da47e2000000000000000000000000000000000000000000000064142576c0ee407cd400000000000000000000000000000000000000000000000005678bb2d31879e20000000000000000000000000000000000000000000000641425ef7153024ad4",
          "blockHash": "0x19302fd0f2ef35a8ccb8b90d972d11b81f1b52f379b44c63b9fa7e64210127ca",
          "blockNumber": "0x1ad90d3",
          "transactionHash": "0x64aade014c2fbe37215b71f0bc4cae11159ac51aa9fcf65f6467775b839cef27",
          "transactionIndex": "0x2",
          "logIndex": "0x6",
          "removed": false
        }
      ],
      "status": "0x1",
      "logsBloom": "0x00000000000000000000000000000000000000000000000000000000000000000000000000000000000000100000000000008000000000000000000000008000000000000000000000000000000000800000000000000000000100000000000000400000000000100000000002000000000000000000000080000000000000000000000000000000000000000000000000000000000000000000000000000000200000000000000000080000000000020000000000000000000000000000004000000000000000000001000000600100000000000000800000108000000000000000000000000000000000000000000000000000000000000000000000100000",
      "type": "0x2",
      "effectiveGasPrice": "0xb2d05e0f"
    },
    {
      "transactionHash": "0x4e6afddc98bc8625d234954f5be2c7e054accfa7492033dc164a032842ff64ba",
      "transactionIndex": "0x3",
      "blockHash": "0x19302fd0f2ef35a8ccb8b90d972d11b81f1b52f379b44c63b9fa7e64210127ca",
      "blockNumber": "0x1ad90d3",
      "from": "0xb83e23e6a781e57a540281f8e163cb95e9e9f6e3",
      "to": "0xcf3269d26ca2a6d10be6c6faa9a5e507fdc2894f",
      "cumulativeGasUsed": "0x141c14",
      "gasUsed": "0x2e3c1",
      "contractAddress": null,
      "logs": [
        {
          "address": "0x60ae865ee4c725cd04353b5aab364553f56cef82",
          "topics": [
            "0xc672c38b4d26c3c978228e99164105280410b144af24dd3ed8e4f9d211d96a50",
            "0x00000000000000000000000000000000000000000000000000000000000046ea",
            "0x0000000000000000000000000000000000000000000000000000000000000001"
          ],
          "data": "0x00000000000000000000000000000000000000000000000000000000000000c00000000000000000000000000be6bd7092ee83d44a6ec1d949626fee48cab30c000000000000000000000000000000000000000000000000000000000000012000000000000000000000000000000000000000000000000000000000000000000000000000000000000000000000000000000000000000000000000000000160000000000000000000000000000000000000000000000000000000006325e00f000000000000000000000000000000000000000000000000000000000000003f68747470733a2f2f617277656176652e6e65742f796a4a4230366a446a6e755a46464d6b32526337376b535a4551453153612d31456937386130384b51457300000000000000000000000000000000000000000000000000000000000000002000000000000000000000000000000000000000000000000000000000000000000000000000000000000000000000000000000000000000000000000000000000",
          "blockHash": "0x19302fd0f2ef35a8ccb8b90d972d11b81f1b52f379b44c63b9fa7e64210127ca",
          "blockNumber": "0x1ad90d3",
          "transactionHash": "0x4e6afddc98bc8625d234954f5be2c7e054accfa7492033dc164a032842ff64ba",
          "transactionIndex": "0x3",
          "logIndex": "0x7",
          "removed": false
        },
        {
          "address": "0x0000000000000000000000000000000000001010",
          "topics": [
            "0xe6497e3ee548a3372136af2fcb0696db31fc6cf20260707645068bd3fe97f3c4",
            "0x0000000000000000000000000000000000000000000000000000000000001010",
            "0x000000000000000000000000166c5d11457e5416b5d092e34a718536b6ca7744",
            "0x000000000000000000000000b83e23e6a781e57a540281f8e163cb95e9e9f6e3"
          ],
          "data": "0x000000000000000000000000000000000000000000000000002386f26fc10000000000000000000000000000000000000000000000000000002386f26fc1000000000000000000000000000000000000000000000000000005416506a8971ce900000000000000000000000000000000000000000000000000000000000000000000000000000000000000000000000000000000000000000564ebf918581ce9",
          "blockHash": "0x19302fd0f2ef35a8ccb8b90d972d11b81f1b52f379b44c63b9fa7e64210127ca",
          "blockNumber": "0x1ad90d3",
          "transactionHash": "0x4e6afddc98bc8625d234954f5be2c7e054accfa7492033dc164a032842ff64ba",
          "transactionIndex": "0x3",
          "logIndex": "0x8",
          "removed": false
        },
        {
          "address": "0x0000000000000000000000000000000000001010",
          "topics": [
            "0x4dfe1bbbcf077ddc3e01291eea2d5c70c2b422b415d95645b9adcfd678cb1d63",
            "0x0000000000000000000000000000000000000000000000000000000000001010",
            "0x000000000000000000000000b83e23e6a781e57a540281f8e163cb95e9e9f6e3",
            "0x0000000000000000000000003a22c8bc68e98b0faf40f349dd2b2890fae01484"
          ],
          "data": "0x000000000000000000000000000000000000000000000000000204b64e70de00000000000000000000000000000000000000000000000000054404c0634d5a1b0000000000000000000000000000000000000000000000641425ef7153024ad40000000000000000000000000000000000000000000000000542000a14dc7c1b0000000000000000000000000000000000000000000000641427f427a17328d4",
          "blockHash": "0x19302fd0f2ef35a8ccb8b90d972d11b81f1b52f379b44c63b9fa7e64210127ca",
          "blockNumber": "0x1ad90d3",
          "transactionHash": "0x4e6afddc98bc8625d234954f5be2c7e054accfa7492033dc164a032842ff64ba",
          "transactionIndex": "0x3",
          "logIndex": "0x9",
          "removed": false
        }
      ],
      "status": "0x1",
      "logsBloom": "0x00000000000000000000000000000000000000000000000000000400000000000000000000000000000000100000000000008000000000000000000000048000000000000000000000000000000000800000008000040000400100000000000000400000000000100000000002000000000000000000000080000000000000000000000000000000000000000000000000000000000000000000000000000000200000000000000000080000000000120800000000000000000000000000004000000000000000000001008000600100000000000000800000108000000040000000000000000100000000000000000000000000000000000000000000100001",
      "type": "0x2",
      "effectiveGasPrice": "0xb2d05e0f"
    }
  ],
  "libraries": [],
  "pending": [],
  "path": "broadcast/DepositAndPost.s.sol/80001/run-latest.json",
  "returns": {},
  "timestamp": 1663426580
}