{
  "transactions": [
    {
      "hash": "0x8dd5f9b340e8f0828009d46bd9156884eb2206cadd447598e4180087a4be48f1",
      "type": "CREATE",
      "contractName": "Pool",
      "contractAddress": "0xc63e38171a96f4505c4633d036bf9698c7d93d82",
      "tx": {
        "type": "0x02",
        "from": "0xb83e23e6a781e57a540281f8e163cb95e9e9f6e3",
        "gas": "0x95fe8",
        "value": "0x0",
        "data": "0x60a060405234801561001057600080fd5b506040516107e93803806107e983398101604081905261002f91610090565b61003833610040565b6080526100a9565b600080546001600160a01b038381166001600160a01b0319831681178455604051919092169283917f8be0079c531659141344cd1fd0a4f28419497f9722a3daafe3b4186f6b6457e09190a35050565b6000602082840312156100a257600080fd5b5051919050565b60805161071e6100cb600039600081816102ed01526103a1015261071e6000f3fe6080604052600436106100705760003560e01c80638da5cb5b1161004e5780638da5cb5b146100cc57806395bbe4e7146100f8578063b214faa514610118578063f2fde38b1461012b57600080fd5b806345af8858146100755780635436d4e814610097578063715018a6146100b7575b600080fd5b34801561008157600080fd5b5061009561009036600461059d565b61014b565b005b3480156100a357600080fd5b506100956100b23660046105e3565b610198565b3480156100c357600080fd5b50610095610280565b3480156100d857600080fd5b50600054604080516001600160a01b039092168252519081900360200190f35b34801561010457600080fd5b5061009561011336600461059d565b610294565b610095610126366004610694565b61039f565b34801561013757600080fd5b5061009561014636600461059d565b61047a565b6000546001600160a01b031633148061016d57506002546001600160a01b0316155b61017657600080fd5b600280546001600160a01b0319166001600160a01b0392909216919091179055565b6002546001600160a01b031633146101e75760405162461bcd60e51b815260206004820152600d60248201526c2737903832b936b4b9b9b4b7b760991b60448201526064015b60405180910390fd5b6000816040516020016101fa91906106ad565b60408051601f1981840301815291815281516020928301206000818152600190935291205490915060ff166102675760405162461bcd60e51b815260206004820152601360248201527215dbdc99081a185cda081b9bdd08199bdd5b99606a1b60448201526064016101de565b6000908152600160205260409020805460ff1916905550565b6102886104f3565b610292600061054d565b565b6002546001600160a01b031633146102de5760405162461bcd60e51b815260206004820152600d60248201526c2737903832b936b4b9b9b4b7b760991b60448201526064016101de565b600080826001600160a01b03167f000000000000000000000000000000000000000000000000000000000000000060405160006040518083038185875af1925050503d806000811461034c576040519150601f19603f3d011682016040523d82523d6000602084013e610351565b606091505b50915091508161039a5760405162461bcd60e51b81526020600482015260146024820152732330b4b632b2103a379039b2b7321022ba3432b960611b60448201526064016101de565b505050565b7f000000000000000000000000000000000000000000000000000000000000000034146104055760405162461bcd60e51b815260206004820152601460248201527315dc9bdb99c819195c1bdcda5d08185b5bdd5b9d60621b60448201526064016101de565b60008181526001602052604090205460ff161561045c5760405162461bcd60e51b815260206004820152601560248201527412185cda08185b1c9958591e481a5b98db1d591959605a1b60448201526064016101de565b6000908152600160208190526040909120805460ff19169091179055565b6104826104f3565b6001600160a01b0381166104e75760405162461bcd60e51b815260206004820152602660248201527f4f776e61626c653a206e6577206f776e657220697320746865207a65726f206160448201526564647265737360d01b60648201526084016101de565b6104f08161054d565b50565b6000546001600160a01b031633146102925760405162461bcd60e51b815260206004820181905260248201527f4f776e61626c653a2063616c6c6572206973206e6f7420746865206f776e657260448201526064016101de565b600080546001600160a01b038381166001600160a01b0319831681178455604051919092169283917f8be0079c531659141344cd1fd0a4f28419497f9722a3daafe3b4186f6b6457e09190a35050565b6000602082840312156105af57600080fd5b81356001600160a01b03811681146105c657600080fd5b9392505050565b634e487b7160e01b600052604160045260246000fd5b6000602082840312156105f557600080fd5b813567ffffffffffffffff8082111561060d57600080fd5b818401915084601f83011261062157600080fd5b813581811115610633576106336105cd565b604051601f8201601f19908116603f0116810190838211818310171561065b5761065b6105cd565b8160405282815287602084870101111561067457600080fd5b826020860160208301376000928101602001929092525095945050505050565b6000602082840312156106a657600080fd5b5035919050565b6000825160005b818110156106ce57602081860181015185830152016106b4565b818111156106dd576000828501525b50919091019291505056fea26469706673582212205f4a3c1d97f29142d92d7d482ddee030803475bf3346d62ca62b1db244dd8d6a64736f6c634300080f0033000000000000000000000000000000000000000000000000002386f26fc10000",
        "nonce": "0xa",
        "accessList": []
      }
    },
    {
      "hash": "0x845e9149ef81a0f029a468b290a5aca988ddbe2d0312e9e7cfc39ddc16c69c8b",
      "type": "CREATE",
      "contractName": "Lens",
      "contractAddress": "0x94a7f2dd38cafb08bfe82eb2ee8b4d90f3528b11",
      "tx": {
        "type": "0x02",
        "from": "0xb83e23e6a781e57a540281f8e163cb95e9e9f6e3",
        "gas": "0xbd553",
        "value": "0x0",
        "data": "0x608060405234801561001057600080fd5b5060405161080238038061080283398101604081905261002f9161022a565b600080546001600160a01b0319166001600160a01b0384161781556040805160c08101825230815260208082018590528251808201845284815282840152606082018490528251808201845284815260808301528251908101835292835260a08101929092525162fcbf2960e31b815273420f0257d43145bb002e69b14ff2eb9630fc4736919082906307e5f948906100cc908490600401610324565b600060405180830381600087803b1580156100e657600080fd5b505af11580156100fa573d6000803e3d6000fd5b50506000546040516308b5f10b60e31b81523060048201526001600160a01b0390911692506345af88589150602401600060405180830381600087803b15801561014357600080fd5b505af1158015610157573d6000803e3d6000fd5b5050604051632f745c5960e01b8152306004820152600060248201527360ae865ee4c725cd04353b5aab364553f56cef829250632f745c5991506044016020604051808303816000875af11580156101b3573d6000803e3d6000fd5b505050506040513d601f19601f820116820180604052508101906101d791906103c2565b600155506103db92505050565b634e487b7160e01b600052604160045260246000fd5b60005b838110156102155781810151838201526020016101fd565b83811115610224576000848401525b50505050565b6000806040838503121561023d57600080fd5b82516001600160a01b038116811461025457600080fd5b60208401519092506001600160401b038082111561027157600080fd5b818501915085601f83011261028557600080fd5b815181811115610297576102976101e4565b604051601f8201601f19908116603f011681019083821181831017156102bf576102bf6101e4565b816040528281528860208487010111156102d857600080fd5b6102e98360208301602088016101fa565b80955050505050509250929050565b600081518084526103108160208601602086016101fa565b601f01601f19169290920160200192915050565b60208152600060018060a01b03808451166020840152602084015160c0604085015261035360e08501826102f8565b90506040850151601f198086840301606087015261037183836102f8565b925083606088015116608087015260808701519350808684030160a087015261039a83856102f8565b935060a08701519250808685030160c087015250506103b982826102f8565b95945050505050565b6000602082840312156103d457600080fd5b5051919050565b610418806103ea6000396000f3fe608060405234801561001057600080fd5b506004361061002b5760003560e01c80630dea4c5114610030575b600080fd5b61004361003e36600461021f565b610045565b005b600054604051630a86da9d60e31b81526001600160a01b0390911690635436d4e89061007590849060040161031d565b600060405180830381600087803b15801561008f57600080fd5b505af11580156100a3573d6000803e3d6000fd5b5050505060006040518060c001604052806001548152602001838152602001730be6bd7092ee83d44a6ec1d949626fee48cab30c6001600160a01b0316815260200160006040516020016100fb911515815260200190565b60408051601f198184030181529181529082526000602083810182905282519081018352908152918101919091525163963ff14160e01b81529091507360ae865ee4c725cd04353b5aab364553f56cef8290819063963ff14190610163908590600401610337565b6020604051808303816000875af1158015610182573d6000803e3d6000fd5b505050506040513d601f19601f820116820180604052508101906101a691906103c9565b506000546040516395bbe4e760e01b81523360048201526001600160a01b03909116906395bbe4e790602401600060405180830381600087803b1580156101ec57600080fd5b505af1158015610200573d6000803e3d6000fd5b50505050505050565b634e487b7160e01b600052604160045260246000fd5b60006020828403121561023157600080fd5b813567ffffffffffffffff8082111561024957600080fd5b818401915084601f83011261025d57600080fd5b81358181111561026f5761026f610209565b604051601f8201601f19908116603f0116810190838211818310171561029757610297610209565b816040528281528760208487010111156102b057600080fd5b826020860160208301376000928101602001929092525095945050505050565b6000815180845260005b818110156102f6576020818501810151868301820152016102da565b81811115610308576000602083870101525b50601f01601f19169290920160200192915050565b60208152600061033060208301846102d0565b9392505050565b60208152815160208201526000602083015160c0604084015261035d60e08401826102d0565b60408501516001600160a01b03908116606086810191909152860151858303601f1990810160808801529293509161039584846102d0565b93508160808801511660a087015260a08701519250808685030160c087015250506103c082826102d0565b95945050505050565b6000602082840312156103db57600080fd5b505191905056fea264697066735822122046a238fb635e0e797d453d8294f92586ae79d606cbb8e96c58941dcdab8211ac64736f6c634300080f0033000000000000000000000000c63e38171a96f4505c4633d036bf9698c7d93d820000000000000000000000000000000000000000000000000000000000000040000000000000000000000000000000000000000000000000000000000000000a7465737468616e646c6500000000000000000000000000000000000000000000",
        "nonce": "0xb",
        "accessList": []
      }
    },
    {
      "hash": "0x80336644ace62b2e7a8785e9fe31656c5124d4cf5949adcee02e9a769b419c30",
      "type": "CALL",
      "contractName": "Pool",
      "contractAddress": "0xc63e38171a96f4505c4633d036bf9698c7d93d82",
      "function": "deposit(bytes32)",
      "arguments": [
        "0402cd1f2b2e49cd35ad727af474e80281ef65b35a8b5a78caa8752952ef0765"
      ],
      "tx": {
        "type": "0x02",
        "from": "0xb83e23e6a781e57a540281f8e163cb95e9e9f6e3",
        "to": "0xc63e38171a96f4505c4633d036bf9698c7d93d82",
        "gas": "0xe09e",
        "value": "0x2386f26fc10000",
        "data": "0xb214faa50402cd1f2b2e49cd35ad727af474e80281ef65b35a8b5a78caa8752952ef0765",
        "nonce": "0xc",
        "accessList": []
      }
    },
    {
      "hash": "0xfd9eea65b0ccbdf4e8ae5806ca7c920d37944e49454862ccd21b7edcfc15732e",
      "type": "CALL",
      "contractName": "Lens",
      "contractAddress": "0x94a7f2dd38cafb08bfe82eb2ee8b4d90f3528b11",
      "function": "verifyAndPost(string)",
      "arguments": [
        "https://arweave.net/yjJB06jDjnuZFFMk2Rc77kSZEQE1Sa-1Ei78a08KQEs"
      ],
      "tx": {
        "type": "0x02",
        "from": "0xb83e23e6a781e57a540281f8e163cb95e9e9f6e3",
        "to": "0x94a7f2dd38cafb08bfe82eb2ee8b4d90f3528b11",
        "gas": "0x3c66b",
        "value": "0x0",
        "data": "0x0dea4c510000000000000000000000000000000000000000000000000000000000000020000000000000000000000000000000000000000000000000000000000000003f68747470733a2f2f617277656176652e6e65742f796a4a4230366a446a6e755a46464d6b32526337376b535a4551453153612d31456937386130384b51457300",
        "nonce": "0xd",
        "accessList": []
      }
    }
  ],
  "receipts": [
    {
      "transactionHash": "0x8dd5f9b340e8f0828009d46bd9156884eb2206cadd447598e4180087a4be48f1",
      "transactionIndex": "0x2",
      "blockHash": "0xde90d93dc525664d6dca3942817311dd6d89f9eac4bff4991577ab4e296e97e2",
      "blockNumber": "0x1ad914d",
      "from": "0xb83e23e6a781e57a540281f8e163cb95e9e9f6e3",
      "to": null,
      "cumulativeGasUsed": "0x190640",
      "gasUsed": "0x73615",
      "contractAddress": "0xc63e38171a96f4505c4633d036bf9698c7d93d82",
      "logs": [
        {
          "address": "0xc63e38171a96f4505c4633d036bf9698c7d93d82",
          "topics": [
            "0x8be0079c531659141344cd1fd0a4f28419497f9722a3daafe3b4186f6b6457e0",
            "0x0000000000000000000000000000000000000000000000000000000000000000",
            "0x000000000000000000000000b83e23e6a781e57a540281f8e163cb95e9e9f6e3"
          ],
          "data": "0x",
          "blockHash": "0xde90d93dc525664d6dca3942817311dd6d89f9eac4bff4991577ab4e296e97e2",
          "blockNumber": "0x1ad914d",
          "transactionHash": "0x8dd5f9b340e8f0828009d46bd9156884eb2206cadd447598e4180087a4be48f1",
          "transactionIndex": "0x2",
          "logIndex": "0x13",
          "removed": false
        },
        {
          "address": "0x0000000000000000000000000000000000001010",
          "topics": [
            "0x4dfe1bbbcf077ddc3e01291eea2d5c70c2b422b415d95645b9adcfd678cb1d63",
            "0x0000000000000000000000000000000000000000000000000000000000001010",
            "0x000000000000000000000000b83e23e6a781e57a540281f8e163cb95e9e9f6e3",
            "0x000000000000000000000000be188d6641e8b680743a4815dfa0f6208038960f"
          ],
          "data": "0x0000000000000000000000000000000000000000000000000005097930ebb600000000000000000000000000000000000000000000000000056586fc847223cc00000000000000000000000000000000000000000000256b511ce72e58b0b0aa00000000000000000000000000000000000000000000000005607d8353866dcc00000000000000000000000000000000000000000000256b5121f0a7899c66aa",
          "blockHash": "0xde90d93dc525664d6dca3942817311dd6d89f9eac4bff4991577ab4e296e97e2",
          "blockNumber": "0x1ad914d",
          "transactionHash": "0x8dd5f9b340e8f0828009d46bd9156884eb2206cadd447598e4180087a4be48f1",
          "transactionIndex": "0x2",
          "logIndex": "0x14",
          "removed": false
        }
      ],
      "status": "0x1",
      "logsBloom": "0x00000000000000000000000000000000000000000000000000800000000000000000000000000000000000400000000000008000000000000000000000000000000000000000000000000000000000801001000000000000000100000000004000000000020000000000000002000800000000000000000080000000000000400000000000000000000000000000000000000000000080000000002000000000200000000000000000000000000000000000000000000000000000000000004000000000000000000001000000600000000000000000000000100040000020000000000000000000000000000000000000000000000000000000000000100000",
      "type": "0x2",
      "effectiveGasPrice": "0xb2d05e0e"
    },
    {
      "transactionHash": "0x845e9149ef81a0f029a468b290a5aca988ddbe2d0312e9e7cfc39ddc16c69c8b",
      "transactionIndex": "0x3",
      "blockHash": "0xde90d93dc525664d6dca3942817311dd6d89f9eac4bff4991577ab4e296e97e2",
      "blockNumber": "0x1ad914d",
      "from": "0xb83e23e6a781e57a540281f8e163cb95e9e9f6e3",
      "to": null,
      "cumulativeGasUsed": "0x222080",
      "gasUsed": "0x91a40",
      "contractAddress": "0x94a7f2dd38cafb08bfe82eb2ee8b4d90f3528b11",
      "logs": [
        {
          "address": "0x60ae865ee4c725cd04353b5aab364553f56cef82",
          "topics": [
            "0xddf252ad1be2c89b69c2b068fc378daa952ba7f163c4a11628f55a4df523b3ef",
            "0x0000000000000000000000000000000000000000000000000000000000000000",
            "0x00000000000000000000000094a7f2dd38cafb08bfe82eb2ee8b4d90f3528b11",
            "0x00000000000000000000000000000000000000000000000000000000000046ec"
          ],
          "data": "0x",
          "blockHash": "0xde90d93dc525664d6dca3942817311dd6d89f9eac4bff4991577ab4e296e97e2",
          "blockNumber": "0x1ad914d",
          "transactionHash": "0x845e9149ef81a0f029a468b290a5aca988ddbe2d0312e9e7cfc39ddc16c69c8b",
          "transactionIndex": "0x3",
          "logIndex": "0x15",
          "removed": false
        },
        {
          "address": "0x60ae865ee4c725cd04353b5aab364553f56cef82",
          "topics": [
            "0x4e14f57cff7910416f2ef43cf05019b5a97a313de71fec9344be11b9b88fed12",
            "0x00000000000000000000000000000000000000000000000000000000000046ec",
            "0x000000000000000000000000420f0257d43145bb002e69b14ff2eb9630fc4736",
            "0x00000000000000000000000094a7f2dd38cafb08bfe82eb2ee8b4d90f3528b11"
          ],
          "data": "0x00000000000000000000000000000000000000000000000000000000000000c00000000000000000000000000000000000000000000000000000000000000100000000000000000000000000000000000000000000000000000000000000000000000000000000000000000000000000000000000000000000000000000001200000000000000000000000000000000000000000000000000000000000000140000000000000000000000000000000000000000000000000000000006325e273000000000000000000000000000000000000000000000000000000000000000f7465737468616e646c652e746573740000000000000000000000000000000000000000000000000000000000000000000000000000000000000000000000000000000000000000000000000000000000000000000000000000000000000000000000000000000000000000000000000000000000000000000000000000000000",
          "blockHash": "0xde90d93dc525664d6dca3942817311dd6d89f9eac4bff4991577ab4e296e97e2",
          "blockNumber": "0x1ad914d",
          "transactionHash": "0x845e9149ef81a0f029a468b290a5aca988ddbe2d0312e9e7cfc39ddc16c69c8b",
          "transactionIndex": "0x3",
          "logIndex": "0x16",
          "removed": false
        },
        {
          "address": "0x0000000000000000000000000000000000001010",
          "topics": [
            "0x4dfe1bbbcf077ddc3e01291eea2d5c70c2b422b415d95645b9adcfd678cb1d63",
            "0x0000000000000000000000000000000000000000000000000000000000001010",
            "0x000000000000000000000000b83e23e6a781e57a540281f8e163cb95e9e9f6e3",
            "0x000000000000000000000000be188d6641e8b680743a4815dfa0f6208038960f"
          ],
          "data": "0x00000000000000000000000000000000000000000000000000065ba92ba3800000000000000000000000000000000000000000000000000005607d83532178a600000000000000000000000000000000000000000000256b5121f0a7899c66aa000000000000000000000000000000000000000000000000055a21da277df8a600000000000000000000000000000000000000000000256b51284c50b53fe6aa",
          "blockHash": "0xde90d93dc525664d6dca3942817311dd6d89f9eac4bff4991577ab4e296e97e2",
          "blockNumber": "0x1ad914d",
          "transactionHash": "0x845e9149ef81a0f029a468b290a5aca988ddbe2d0312e9e7cfc39ddc16c69c8b",
          "transactionIndex": "0x3",
          "logIndex": "0x17",
          "removed": false
        }
      ],
      "status": "0x1",
      "logsBloom": "0x000000000000000000000000000000000000000000000000000004000000000000000000000000000000000000000000800080080000000000000000000000000002000000000000000000080000008000000080000000000001008000000040040000000200000000000000020008000000000000000000a0000010000000000000000000000000000000000000000000000000002080000000000000000000200000000000000000000000000000004800001000000800000000000000004000000002000000000001000000600020000000000000000000100040000020000000000000000000000000000800000000000000000000000000000000100000",
      "type": "0x2",
      "effectiveGasPrice": "0xb2d05e0e"
    },
    {
      "transactionHash": "0x80336644ace62b2e7a8785e9fe31656c5124d4cf5949adcee02e9a769b419c30",
      "transactionIndex": "0x4",
      "blockHash": "0xde90d93dc525664d6dca3942817311dd6d89f9eac4bff4991577ab4e296e97e2",
      "blockNumber": "0x1ad914d",
      "from": "0xb83e23e6a781e57a540281f8e163cb95e9e9f6e3",
      "to": "0xc63e38171a96f4505c4633d036bf9698c7d93d82",
      "cumulativeGasUsed": "0x22cd49",
      "gasUsed": "0xacc9",
      "contractAddress": null,
      "logs": [
        {
          "address": "0x0000000000000000000000000000000000001010",
          "topics": [
            "0xe6497e3ee548a3372136af2fcb0696db31fc6cf20260707645068bd3fe97f3c4",
            "0x0000000000000000000000000000000000000000000000000000000000001010",
            "0x000000000000000000000000b83e23e6a781e57a540281f8e163cb95e9e9f6e3",
            "0x000000000000000000000000c63e38171a96f4505c4633d036bf9698c7d93d82"
          ],
          "data": "0x000000000000000000000000000000000000000000000000002386f26fc10000000000000000000000000000000000000000000000000000055984f578183c8200000000000000000000000000000000000000000000000000000000000000000000000000000000000000000000000000000000000000000535fe0308573c82000000000000000000000000000000000000000000000000002386f26fc10000",
          "blockHash": "0xde90d93dc525664d6dca3942817311dd6d89f9eac4bff4991577ab4e296e97e2",
          "blockNumber": "0x1ad914d",
          "transactionHash": "0x80336644ace62b2e7a8785e9fe31656c5124d4cf5949adcee02e9a769b419c30",
          "transactionIndex": "0x4",
          "logIndex": "0x18",
          "removed": false
        },
        {
          "address": "0x0000000000000000000000000000000000001010",
          "topics": [
            "0x4dfe1bbbcf077ddc3e01291eea2d5c70c2b422b415d95645b9adcfd678cb1d63",
            "0x0000000000000000000000000000000000000000000000000000000000001010",
            "0x000000000000000000000000b83e23e6a781e57a540281f8e163cb95e9e9f6e3",
            "0x000000000000000000000000be188d6641e8b680743a4815dfa0f6208038960f"
          ],
          "data": "0x000000000000000000000000000000000000000000000000000078b064c1ce00000000000000000000000000000000000000000000000000055a21da26fe892600000000000000000000000000000000000000000000256b51284c50b53fe6aa0000000000000000000000000000000000000000000000000559a929c23cbb2600000000000000000000000000000000000000000000256b5128c5011a01b4aa",
          "blockHash": "0xde90d93dc525664d6dca3942817311dd6d89f9eac4bff4991577ab4e296e97e2",
          "blockNumber": "0x1ad914d",
          "transactionHash": "0x80336644ace62b2e7a8785e9fe31656c5124d4cf5949adcee02e9a769b419c30",
          "transactionIndex": "0x4",
          "logIndex": "0x19",
          "removed": false
        }
      ],
      "status": "0x1",
      "logsBloom": "0x00000000000000000000000000000000000000000000000000000000000000000000000000000000000000100000000000008000000000000000000000000000000000000000000000000000000000800000000000000000000100000000004000000000000000000000000002000000000000000000000080000000000000000000000000000000000000000080000000000000000080000000000000000000200000000000000000000000000000000000000000000000000000000008004000000000000000000001000000600000000000000000800000108040000000000000000000000000000000800000000000000000000000000000000000100000",
      "type": "0x2",
      "effectiveGasPrice": "0xb2d05e0e"
    },
    {
      "transactionHash": "0xfd9eea65b0ccbdf4e8ae5806ca7c920d37944e49454862ccd21b7edcfc15732e",
      "transactionIndex": "0x5",
      "blockHash": "0xde90d93dc525664d6dca3942817311dd6d89f9eac4bff4991577ab4e296e97e2",
      "blockNumber": "0x1ad914d",
      "from": "0xb83e23e6a781e57a540281f8e163cb95e9e9f6e3",
      "to": "0x94a7f2dd38cafb08bfe82eb2ee8b4d90f3528b11",
      "cumulativeGasUsed": "0x25b4af",
      "gasUsed": "0x2e766",
      "contractAddress": null,
      "logs": [
        {
          "address": "0x60ae865ee4c725cd04353b5aab364553f56cef82",
          "topics": [
            "0xc672c38b4d26c3c978228e99164105280410b144af24dd3ed8e4f9d211d96a50",
            "0x00000000000000000000000000000000000000000000000000000000000046ec",
            "0x0000000000000000000000000000000000000000000000000000000000000001"
          ],
          "data": "0x00000000000000000000000000000000000000000000000000000000000000c00000000000000000000000000be6bd7092ee83d44a6ec1d949626fee48cab30c000000000000000000000000000000000000000000000000000000000000012000000000000000000000000000000000000000000000000000000000000000000000000000000000000000000000000000000000000000000000000000000160000000000000000000000000000000000000000000000000000000006325e273000000000000000000000000000000000000000000000000000000000000003f68747470733a2f2f617277656176652e6e65742f796a4a4230366a446a6e755a46464d6b32526337376b535a4551453153612d31456937386130384b51457300000000000000000000000000000000000000000000000000000000000000002000000000000000000000000000000000000000000000000000000000000000000000000000000000000000000000000000000000000000000000000000000000",
          "blockHash": "0xde90d93dc525664d6dca3942817311dd6d89f9eac4bff4991577ab4e296e97e2",
          "blockNumber": "0x1ad914d",
          "transactionHash": "0xfd9eea65b0ccbdf4e8ae5806ca7c920d37944e49454862ccd21b7edcfc15732e",
          "transactionIndex": "0x5",
          "logIndex": "0x1a",
          "removed": false
        },
        {
          "address": "0x0000000000000000000000000000000000001010",
          "topics": [
            "0xe6497e3ee548a3372136af2fcb0696db31fc6cf20260707645068bd3fe97f3c4",
            "0x0000000000000000000000000000000000000000000000000000000000001010",
            "0x000000000000000000000000c63e38171a96f4505c4633d036bf9698c7d93d82",
            "0x000000000000000000000000b83e23e6a781e57a540281f8e163cb95e9e9f6e3"
          ],
          "data": "0x000000000000000000000000000000000000000000000000002386f26fc10000000000000000000000000000000000000000000000000000002386f26fc1000000000000000000000000000000000000000000000000000005337f2e5272244e000000000000000000000000000000000000000000000000000000000000000000000000000000000000000000000000000000000000000005570620c233244e",
          "blockHash": "0xde90d93dc525664d6dca3942817311dd6d89f9eac4bff4991577ab4e296e97e2",
          "blockNumber": "0x1ad914d",
          "transactionHash": "0xfd9eea65b0ccbdf4e8ae5806ca7c920d37944e49454862ccd21b7edcfc15732e",
          "transactionIndex": "0x5",
          "logIndex": "0x1b",
          "removed": false
        },
        {
          "address": "0x0000000000000000000000000000000000001010",
          "topics": [
            "0x4dfe1bbbcf077ddc3e01291eea2d5c70c2b422b415d95645b9adcfd678cb1d63",
            "0x0000000000000000000000000000000000000000000000000000000000001010",
            "0x000000000000000000000000b83e23e6a781e57a540281f8e163cb95e9e9f6e3",
            "0x000000000000000000000000be188d6641e8b680743a4815dfa0f6208038960f"
          ],
          "data": "0x00000000000000000000000000000000000000000000000000020741ffd77400000000000000000000000000000000000000000000000000053622375272482800000000000000000000000000000000000000000000256b5128c5011a01b4aa00000000000000000000000000000000000000000000000005341af5529ad42800000000000000000000000000000000000000000000256b512acc4319d928aa",
          "blockHash": "0xde90d93dc525664d6dca3942817311dd6d89f9eac4bff4991577ab4e296e97e2",
          "blockNumber": "0x1ad914d",
          "transactionHash": "0xfd9eea65b0ccbdf4e8ae5806ca7c920d37944e49454862ccd21b7edcfc15732e",
          "transactionIndex": "0x5",
          "logIndex": "0x1c",
          "removed": false
        }
      ],
      "status": "0x1",
      "logsBloom": "0x00000000000000000000000000000000000000000000000000000400000000000000000000000000000000100000000080008000000000000000000000040000000000000000000000000000000000800000008000040000000100800000004000000000000000000000000002000000000000000000000080000000000000000000000000000000000000000080000000000000000080000000000000000000200000000000000000000000000000104800000000000000000000000008004000000000000000000001000000600000000000000000800000108040000040000000000000000100000000800000000000000000000000000000000000100001",
      "type": "0x2",
      "effectiveGasPrice": "0xb2d05e0e"
    }
  ],
  "libraries": [],
  "pending": [],
  "path": "broadcast/DepositAndPost.s.sol/80001/run-latest.json",
  "returns": {},
  "timestamp": 1663427196
}